{
  "contractName": "LampController",
  "abi": [
    {
      "constant": true,
      "inputs": [],
      "name": "lamp",
      "outputs": [
        {
          "name": "isOn",
          "type": "bool"
        },
        {
          "name": "lampColor",
          "type": "string"
        }
      ],
      "payable": false,
      "stateMutability": "view",
      "type": "function",
      "signature": "0x9da26762"
    },
    {
      "inputs": [],
      "payable": false,
      "stateMutability": "nonpayable",
      "type": "constructor",
      "signature": "constructor"
    },
    {
      "constant": false,
      "inputs": [],
      "name": "setLampState",
      "outputs": [],
      "payable": false,
      "stateMutability": "nonpayable",
      "type": "function",
      "signature": "0xe472e3a6"
    },
    {
      "constant": true,
      "inputs": [],
      "name": "getLampState",
      "outputs": [
        {
          "name": "",
          "type": "bool"
        }
      ],
      "payable": false,
      "stateMutability": "view",
      "type": "function",
      "signature": "0xfe54d326"
    }
  ],
  "bytecode": "0x608060405234801561001057600080fd5b5060408051808201825260018082528251808401909352600683527f6769616c6c6f00000000000000000000000000000000000000000000000000006020808501918252830184905282516000805460ff1916911515919091178155935192939261007c929190610085565b50905050610120565b828054600181600116156101000203166002900490600052602060002090601f016020900481019282601f106100c657805160ff19168380011785556100f3565b828001600101855582156100f3579182015b828111156100f35782518255916020019190600101906100d8565b506100ff929150610103565b5090565b61011d91905b808211156100ff5760008155600101610109565b90565b6102168061012f6000396000f3fe6080604052600436106100565763ffffffff7c01000000000000000000000000000000000000000000000000000000006000350416639da26762811461005b578063e472e3a6146100f3578063fe54d3261461010a575b600080fd5b34801561006757600080fd5b50610070610133565b604051808315151515815260200180602001828103825283818151815260200191508051906020019080838360005b838110156100b757818101518382015260200161009f565b50505050905090810190601f1680156100e45780820380516001836020036101000a031916815260200191505b50935050505060405180910390f35b3480156100ff57600080fd5b506101086101cd565b005b34801561011657600080fd5b5061011f6101e1565b604080519115158252519081900360200190f35b6000805460018054604080516020600261010085871615026000190190941693909304601f810184900484028201840190925281815260ff909416949392918301828280156101c35780601f10610198576101008083540402835291602001916101c3565b820191906000526020600020905b8154815290600101906020018083116101a657829003601f168201915b5050505050905082565b6000805460ff19811660ff90911615179055565b60005460ff169056fea165627a7a723058207a7ecac93681471baee9a452dcb060c81fd21ef92fdda687a93faa60960e0e4b0029",
  "source": "//contratto per gestire l'accensione e lo spegnimento da remoto di una lampadina\r\n\r\npragma solidity ^0.5.0;\r\n\r\ncontract LampController {\r\n    \r\n    struct Lamp {\r\n        bool isOn;\r\n        string lampColor;\r\n    }    \r\n\r\n    Lamp public lamp;\r\n\r\n    constructor() public {\r\n        lamp = Lamp(true, \"giallo\");\r\n    }\r\n\r\n    //funzione per invertire lo stato della proprietà isOn che indica se la lampadina sia accesa o spenta\r\n    function setLampState() external {\r\n        lamp.isOn = !lamp.isOn;\r\n    }\r\n\r\n    function getLampState() external view returns (bool) {\r\n        return (lamp.isOn);\r\n    }\r\n\r\n}",
  "sourcePath": "C:/Users/UTENTE/Desktop/eth-my-app/contracts/LampController.sol",
  "compiler": {
    "name": "solc",
    "version": "0.5.0+commit.1d4f565a.Emscripten.clang"
  },
  "schemaVersion": "3.0.1",
  "updatedAt": "2023-09-18T16:09:56.095Z",
  "devdoc": {
    "methods": {}
  },
  "userdoc": {
    "methods": {}
  }
}